{
  "contractName": "UniversityHousing",
  "abi": [
    {
      "inputs": [],
      "stateMutability": "nonpayable",
      "type": "constructor"
    },
    {
      "inputs": [],
      "name": "rentCount",
      "outputs": [
        {
          "internalType": "uint256",
          "name": "",
          "type": "uint256"
        }
      ],
      "stateMutability": "view",
      "type": "function",
      "constant": true
    },
    {
      "inputs": [
        {
          "internalType": "uint256",
          "name": "",
          "type": "uint256"
        }
      ],
      "name": "rents",
      "outputs": [
        {
          "internalType": "uint256",
          "name": "id",
          "type": "uint256"
        },
        {
          "internalType": "address",
          "name": "owner",
          "type": "address"
        },
        {
          "internalType": "address",
          "name": "renter",
          "type": "address"
        },
        {
          "internalType": "string",
          "name": "city",
          "type": "string"
        },
        {
          "internalType": "string",
          "name": "rentAddress",
          "type": "string"
        },
        {
          "internalType": "uint256",
          "name": "rentValue",
          "type": "uint256"
        }
      ],
      "stateMutability": "view",
      "type": "function",
      "constant": true
    },
    {
      "inputs": [
        {
          "internalType": "uint256",
          "name": "_rentId",
          "type": "uint256"
        }
      ],
      "name": "getRent",
      "outputs": [
        {
          "components": [
            {
              "internalType": "uint256",
              "name": "id",
              "type": "uint256"
            },
            {
              "internalType": "address",
              "name": "owner",
              "type": "address"
            },
            {
              "internalType": "address",
              "name": "renter",
              "type": "address"
            },
            {
              "internalType": "string",
              "name": "city",
              "type": "string"
            },
            {
              "internalType": "string",
              "name": "rentAddress",
              "type": "string"
            },
            {
              "internalType": "uint256",
              "name": "rentValue",
              "type": "uint256"
            }
          ],
          "internalType": "struct UniversityHousing.Rent",
          "name": "",
          "type": "tuple"
        }
      ],
      "stateMutability": "view",
      "type": "function",
      "constant": true
    },
    {
      "inputs": [
        {
          "internalType": "string",
          "name": "_city",
          "type": "string"
        },
        {
          "internalType": "string",
          "name": "_rentAddress",
          "type": "string"
        },
        {
          "internalType": "uint256",
          "name": "_rentValue",
          "type": "uint256"
        }
      ],
      "name": "postRent",
      "outputs": [
        {
          "internalType": "uint256",
          "name": "",
          "type": "uint256"
        }
      ],
      "stateMutability": "nonpayable",
      "type": "function"
    },
    {
      "inputs": [
        {
          "internalType": "uint256",
          "name": "_rentId",
          "type": "uint256"
        },
        {
          "internalType": "string",
          "name": "_city",
          "type": "string"
        },
        {
          "internalType": "string",
          "name": "_rentAddress",
          "type": "string"
        },
        {
          "internalType": "uint256",
          "name": "_rentValue",
          "type": "uint256"
        }
      ],
      "name": "updateRent",
      "outputs": [
        {
          "internalType": "bool",
          "name": "",
          "type": "bool"
        }
      ],
      "stateMutability": "nonpayable",
      "type": "function"
    },
    {
      "inputs": [
        {
          "internalType": "uint256",
          "name": "_rentId",
          "type": "uint256"
        }
      ],
      "name": "takeRent",
      "outputs": [
        {
          "internalType": "bool",
          "name": "",
          "type": "bool"
        }
      ],
      "stateMutability": "nonpayable",
      "type": "function"
    },
    {
      "inputs": [
        {
          "internalType": "uint256",
          "name": "_rentId",
          "type": "uint256"
        }
      ],
      "name": "leaveRent",
      "outputs": [
        {
          "internalType": "bool",
          "name": "",
          "type": "bool"
        }
      ],
      "stateMutability": "nonpayable",
      "type": "function"
    },
    {
      "inputs": [
        {
          "internalType": "uint256",
          "name": "_rentId",
          "type": "uint256"
        }
      ],
      "name": "payRent",
      "outputs": [
        {
          "internalType": "bool",
          "name": "",
          "type": "bool"
        }
      ],
      "stateMutability": "payable",
      "type": "function",
      "payable": true
    },
    {
      "inputs": [],
      "name": "getThePrice",
      "outputs": [
        {
          "internalType": "uint256",
          "name": "",
          "type": "uint256"
        }
      ],
      "stateMutability": "view",
      "type": "function",
      "constant": true
    }
  ],
  "bytecode": "0x6080604052600060015534801561001557600080fd5b50739326bfa02add2366b30bacb125260af6410313316000806101000a81548173ffffffffffffffffffffffffffffffffffffffff021916908373ffffffffffffffffffffffffffffffffffffffff160217905550611ddd806100796000396000f3fe6080604052600436106100865760003560e01c8063ac0eba1d11610059578063ac0eba1d14610160578063c34bcee71461019d578063c432ef8e146101da578063d5bacc3414610217578063d9e8843f1461025457610086565b8063037d94021461008b5780637c2654f6146100c85780638c3c9a55146100f3578063a05d098c1461011e575b600080fd5b34801561009757600080fd5b506100b260048036038101906100ad91906113e2565b610284565b6040516100bf919061180f565b60405180910390f35b3480156100d457600080fd5b506100dd6104e8565b6040516100ea9190611831565b60405180910390f35b3480156100ff57600080fd5b506101086104ee565b6040516101159190611831565b60405180910390f35b34801561012a57600080fd5b50610145600480360381019061014091906113e2565b6105aa565b6040516101579695949392919061184c565b60405180910390f35b34801561016c57600080fd5b50610187600480360381019061018291906113e2565b610736565b6040516101949190611734565b60405180910390f35b3480156101a957600080fd5b506101c460048036038101906101bf9190611363565b610896565b6040516101d19190611831565b60405180910390f35b3480156101e657600080fd5b5061020160048036038101906101fc91906113e2565b610a0c565b60405161020e9190611734565b60405180910390f35b34801561022357600080fd5b5061023e6004803603810190610239919061140b565b610b6a565b60405161024b9190611734565b60405180910390f35b61026e600480360381019061026991906113e2565b610d1d565b60405161027b9190611734565b60405180910390f35b61028c6111a2565b8160008111801561029f57506001548111155b6102de576040517f08c379a00000000000000000000000000000000000000000000000000000000081526004016102d5906117ef565b60405180910390fd5b600260008481526020019081526020016000206040518060c0016040529081600082015481526020016001820160009054906101000a900473ffffffffffffffffffffffffffffffffffffffff1673ffffffffffffffffffffffffffffffffffffffff1673ffffffffffffffffffffffffffffffffffffffff1681526020016002820160009054906101000a900473ffffffffffffffffffffffffffffffffffffffff1673ffffffffffffffffffffffffffffffffffffffff1673ffffffffffffffffffffffffffffffffffffffff1681526020016003820180546103c290611aa7565b80601f01602080910402602001604051908101604052809291908181526020018280546103ee90611aa7565b801561043b5780601f106104105761010080835404028352916020019161043b565b820191906000526020600020905b81548152906001019060200180831161041e57829003601f168201915b5050505050815260200160048201805461045490611aa7565b80601f016020809104026020016040519081016040528092919081815260200182805461048090611aa7565b80156104cd5780601f106104a2576101008083540402835291602001916104cd565b820191906000526020600020905b8154815290600101906020018083116104b057829003601f168201915b50505050508152602001600582015481525050915050919050565b60015481565b60008060008060008060008054906101000a900473ffffffffffffffffffffffffffffffffffffffff1673ffffffffffffffffffffffffffffffffffffffff1663feaf968c6040518163ffffffff1660e01b815260040160a06040518083038186803b15801561055d57600080fd5b505afa158015610571573d6000803e3d6000fd5b505050506040513d601f19601f82011682018060405250810190610595919061149e565b94509450945094509450839550505050505090565b60026020528060005260406000206000915090508060000154908060010160009054906101000a900473ffffffffffffffffffffffffffffffffffffffff16908060020160009054906101000a900473ffffffffffffffffffffffffffffffffffffffff169080600301805461061f90611aa7565b80601f016020809104026020016040519081016040528092919081815260200182805461064b90611aa7565b80156106985780601f1061066d57610100808354040283529160200191610698565b820191906000526020600020905b81548152906001019060200180831161067b57829003601f168201915b5050505050908060040180546106ad90611aa7565b80601f01602080910402602001604051908101604052809291908181526020018280546106d990611aa7565b80156107265780601f106106fb57610100808354040283529160200191610726565b820191906000526020600020905b81548152906001019060200180831161070957829003601f168201915b5050505050908060050154905086565b6000816002600082815260200190815260200160002060020160009054906101000a900473ffffffffffffffffffffffffffffffffffffffff1673ffffffffffffffffffffffffffffffffffffffff163373ffffffffffffffffffffffffffffffffffffffff16146107dd576040517f08c379a00000000000000000000000000000000000000000000000000000000081526004016107d49061178f565b60405180910390fd5b826000811180156107f057506001548111155b61082f576040517f08c379a0000000000000000000000000000000000000000000000000000000008152600401610826906117ef565b60405180910390fd5b600060026000868152602001908152602001600020905060008160020160006101000a81548173ffffffffffffffffffffffffffffffffffffffff021916908373ffffffffffffffffffffffffffffffffffffffff16021790555060019350505050919050565b6000600160008154809291906108ab90611b0a565b91905055506040518060c0016040528060015481526020013373ffffffffffffffffffffffffffffffffffffffff168152602001600073ffffffffffffffffffffffffffffffffffffffff168152602001858152602001848152602001838152506002600060015481526020019081526020016000206000820151816000015560208201518160010160006101000a81548173ffffffffffffffffffffffffffffffffffffffff021916908373ffffffffffffffffffffffffffffffffffffffff16021790555060408201518160020160006101000a81548173ffffffffffffffffffffffffffffffffffffffff021916908373ffffffffffffffffffffffffffffffffffffffff16021790555060608201518160030190805190602001906109d5929190611204565b5060808201518160040190805190602001906109f2929190611204565b5060a0820151816005015590505060015490509392505050565b600081600081118015610a2157506001548111155b610a60576040517f08c379a0000000000000000000000000000000000000000000000000000000008152600401610a57906117ef565b60405180910390fd5b600073ffffffffffffffffffffffffffffffffffffffff166002600085815260200190815260200160002060020160009054906101000a900473ffffffffffffffffffffffffffffffffffffffff1673ffffffffffffffffffffffffffffffffffffffff1614610b05576040517f08c379a0000000000000000000000000000000000000000000000000000000008152600401610afc9061176f565b60405180910390fd5b6000600260008581526020019081526020016000209050338160020160006101000a81548173ffffffffffffffffffffffffffffffffffffffff021916908373ffffffffffffffffffffffffffffffffffffffff160217905550600192505050919050565b6000846002600082815260200190815260200160002060010160009054906101000a900473ffffffffffffffffffffffffffffffffffffffff1673ffffffffffffffffffffffffffffffffffffffff163373ffffffffffffffffffffffffffffffffffffffff1614610c11576040517f08c379a0000000000000000000000000000000000000000000000000000000008152600401610c08906117cf565b60405180910390fd5b85600081118015610c2457506001548111155b610c63576040517f08c379a0000000000000000000000000000000000000000000000000000000008152600401610c5a906117ef565b60405180910390fd5b6002600088815260200190815260200160002060050154841415610cbc576040517f08c379a0000000000000000000000000000000000000000000000000000000008152600401610cb3906117af565b60405180910390fd5b600060026000898152602001908152602001600020905086816003019080519060200190610ceb929190611204565b5085816004019080519060200190610d04929190611204565b5084816005018190555060019350505050949350505050565b6000816002600082815260200190815260200160002060020160009054906101000a900473ffffffffffffffffffffffffffffffffffffffff1673ffffffffffffffffffffffffffffffffffffffff163373ffffffffffffffffffffffffffffffffffffffff1614610dc4576040517f08c379a0000000000000000000000000000000000000000000000000000000008152600401610dbb9061178f565b60405180910390fd5b82600081118015610dd757506001548111155b610e16576040517f08c379a0000000000000000000000000000000000000000000000000000000008152600401610e0d906117ef565b60405180910390fd5b6000600260008681526020019081526020016000206040518060c0016040529081600082015481526020016001820160009054906101000a900473ffffffffffffffffffffffffffffffffffffffff1673ffffffffffffffffffffffffffffffffffffffff1673ffffffffffffffffffffffffffffffffffffffff1681526020016002820160009054906101000a900473ffffffffffffffffffffffffffffffffffffffff1673ffffffffffffffffffffffffffffffffffffffff1673ffffffffffffffffffffffffffffffffffffffff168152602001600382018054610efc90611aa7565b80601f0160208091040260200160405190810160405280929190818152602001828054610f2890611aa7565b8015610f755780601f10610f4a57610100808354040283529160200191610f75565b820191906000526020600020905b815481529060010190602001808311610f5857829003601f168201915b50505050508152602001600482018054610f8e90611aa7565b80601f0160208091040260200160405190810160405280929190818152602001828054610fba90611aa7565b80156110075780601f10610fdc57610100808354040283529160200191611007565b820191906000526020600020905b815481529060010190602001808311610fea57829003601f168201915b50505050508152602001600582015481525050905060006110266104ee565b9050600061105b8261104d670de0b6b3a76400008660a0015161116090919063ffffffff16565b61117690919063ffffffff16565b9050348360a0015111156110a4576040517f08c379a000000000000000000000000000000000000000000000000000000000815260040161109b9061174f565b60405180910390fd5b60006110b9823461118c90919063ffffffff16565b9050836020015173ffffffffffffffffffffffffffffffffffffffff166108fc8560a001519081150290604051600060405180830381858888f19350505050158015611109573d6000803e3d6000fd5b503373ffffffffffffffffffffffffffffffffffffffff166108fc829081150290604051600060405180830381858888f19350505050158015611150573d6000803e3d6000fd5b5060019650505050505050919050565b6000818361116e919061196f565b905092915050565b60008183611184919061193e565b905092915050565b6000818361119a91906119c9565b905092915050565b6040518060c0016040528060008152602001600073ffffffffffffffffffffffffffffffffffffffff168152602001600073ffffffffffffffffffffffffffffffffffffffff1681526020016060815260200160608152602001600081525090565b82805461121090611aa7565b90600052602060002090601f0160209004810192826112325760008555611279565b82601f1061124b57805160ff1916838001178555611279565b82800160010185558215611279579182015b8281111561127857825182559160200191906001019061125d565b5b509050611286919061128a565b5090565b5b808211156112a357600081600090555060010161128b565b5090565b60006112ba6112b5846118e0565b6118bb565b9050828152602081018484840111156112d257600080fd5b6112dd848285611a65565b509392505050565b6000815190506112f481611d62565b92915050565b600082601f83011261130b57600080fd5b813561131b8482602086016112a7565b91505092915050565b60008135905061133381611d79565b92915050565b60008151905061134881611d79565b92915050565b60008151905061135d81611d90565b92915050565b60008060006060848603121561137857600080fd5b600084013567ffffffffffffffff81111561139257600080fd5b61139e868287016112fa565b935050602084013567ffffffffffffffff8111156113bb57600080fd5b6113c7868287016112fa565b92505060406113d886828701611324565b9150509250925092565b6000602082840312156113f457600080fd5b600061140284828501611324565b91505092915050565b6000806000806080858703121561142157600080fd5b600061142f87828801611324565b945050602085013567ffffffffffffffff81111561144c57600080fd5b611458878288016112fa565b935050604085013567ffffffffffffffff81111561147557600080fd5b611481878288016112fa565b925050606061149287828801611324565b91505092959194509250565b600080600080600060a086880312156114b657600080fd5b60006114c48882890161134e565b95505060206114d5888289016112e5565b94505060406114e688828901611339565b93505060606114f788828901611339565b92505060806115088882890161134e565b9150509295509295909350565b61151e816119fd565b82525050565b61152d816119fd565b82525050565b61153c81611a0f565b82525050565b600061154d82611911565b611557818561191c565b9350611567818560208601611a74565b61157081611c0f565b840191505092915050565b600061158682611911565b611590818561192d565b93506115a0818560208601611a74565b6115a981611c0f565b840191505092915050565b60006115c160358361192d565b91506115cc82611c20565b604082019050919050565b60006115e4601f8361192d565b91506115ef82611c6f565b602082019050919050565b600061160760208361192d565b915061161282611c98565b602082019050919050565b600061162a60388361192d565b915061163582611cc1565b604082019050919050565b600061164d60208361192d565b915061165882611d10565b602082019050919050565b600061167060208361192d565b915061167b82611d39565b602082019050919050565b600060c08301600083015161169e6000860182611716565b5060208301516116b16020860182611515565b5060408301516116c46040860182611515565b50606083015184820360608601526116dc8282611542565b915050608083015184820360808601526116f68282611542565b91505060a083015161170b60a0860182611716565b508091505092915050565b61171f81611a45565b82525050565b61172e81611a45565b82525050565b60006020820190506117496000830184611533565b92915050565b60006020820190508181036000830152611768816115b4565b9050919050565b60006020820190508181036000830152611788816115d7565b9050919050565b600060208201905081810360008301526117a8816115fa565b9050919050565b600060208201905081810360008301526117c88161161d565b9050919050565b600060208201905081810360008301526117e881611640565b9050919050565b6000602082019050818103600083015261180881611663565b9050919050565b600060208201905081810360008301526118298184611686565b905092915050565b60006020820190506118466000830184611725565b92915050565b600060c0820190506118616000830189611725565b61186e6020830188611524565b61187b6040830187611524565b818103606083015261188d818661157b565b905081810360808301526118a1818561157b565b90506118b060a0830184611725565b979650505050505050565b60006118c56118d6565b90506118d18282611ad9565b919050565b6000604051905090565b600067ffffffffffffffff8211156118fb576118fa611be0565b5b61190482611c0f565b9050602081019050919050565b600081519050919050565b600082825260208201905092915050565b600082825260208201905092915050565b600061194982611a45565b915061195483611a45565b92508261196457611963611b82565b5b828204905092915050565b600061197a82611a45565b915061198583611a45565b9250817fffffffffffffffffffffffffffffffffffffffffffffffffffffffffffffffff04831182151516156119be576119bd611b53565b5b828202905092915050565b60006119d482611a45565b91506119df83611a45565b9250828210156119f2576119f1611b53565b5b828203905092915050565b6000611a0882611a25565b9050919050565b60008115159050919050565b6000819050919050565b600073ffffffffffffffffffffffffffffffffffffffff82169050919050565b6000819050919050565b600069ffffffffffffffffffff82169050919050565b82818337600083830152505050565b60005b83811015611a92578082015181840152602081019050611a77565b83811115611aa1576000848401525b50505050565b60006002820490506001821680611abf57607f821691505b60208210811415611ad357611ad2611bb1565b5b50919050565b611ae282611c0f565b810181811067ffffffffffffffff82111715611b0157611b00611be0565b5b80604052505050565b6000611b1582611a45565b91507fffffffffffffffffffffffffffffffffffffffffffffffffffffffffffffffff821415611b4857611b47611b53565b5b600182019050919050565b7f4e487b7100000000000000000000000000000000000000000000000000000000600052601160045260246000fd5b7f4e487b7100000000000000000000000000000000000000000000000000000000600052601260045260246000fd5b7f4e487b7100000000000000000000000000000000000000000000000000000000600052602260045260246000fd5b7f4e487b7100000000000000000000000000000000000000000000000000000000600052604160045260246000fd5b6000601f19601f8301169050919050565b7f5468652076616c7565206d7573742062652067726561746572206f722071756560008201527f616c7320746f207468652072656e742076616c75650000000000000000000000602082015250565b7f5468652072656e742068617320616c7265616479206265656e2074616b656e00600082015250565b7f5468652073656e646572206973206e6f7420746865207468652072656e746572600082015250565b7f546865206e65772072656e742076616c7565206d75737420626520646966666560008201527f72656e7420746f207468652070726576696f7573206f6e650000000000000000602082015250565b7f5468652073656e646572206973206e6f74207468652072656e74206f776e6572600082015250565b7f5468652072656e7420696420676976656e20646f6573206e6f74206578697374600082015250565b611d6b81611a1b565b8114611d7657600080fd5b50565b611d8281611a45565b8114611d8d57600080fd5b50565b611d9981611a4f565b8114611da457600080fd5b5056fea264697066735822122080422062022573d6794bb18870e74067cedb9cf7b01248fce0c851534c45601464736f6c63430008040033",
  "immutableReferences": {},
  "source": "// SPDX-License-Identifier: MIT\npragma solidity >=0.7.0 <0.9.0;\n\nimport \"@chainlink/contracts/src/v0.6/interfaces/AggregatorV3Interface.sol\";\nimport \"@openzeppelin/contracts/utils/math/SafeMath.sol\";\n\ncontract UniversityHousing {\n\n    /**\n     * Struct that store a rent information\n     * Id: Unique identificator for the rent\n     * Owner: Address of the person who is the rent's owner\n     * Renter: Address of the person who is \"living\" in the rent\n     * City: city's name where the rent is lacated\n     * RentAddress: Rent's address in the city\n     * RentValue: rent value in dollars * 100000000 (rentValue = 100000000 is equal to 1 dollar)\n     */\n    struct Rent {\n        uint id;\n        address owner;\n        address renter;\n        string city;\n        string rentAddress;\n        uint rentValue;\n    }\n\n    AggregatorV3Interface internal priceFeed;\n    using SafeMath for uint;\n\n    uint public rentCount = 0;\n    mapping(uint => Rent) public rents;\n    \n\n    // CONSTRUCTOR\n    \n    constructor() {\n        priceFeed = AggregatorV3Interface(0x9326BFA02ADD2366b30bacB125260Af641031331);\n    }\n\n\n    // MODIFIERS\n\n    modifier onlyOwner(uint _rentId) {\n        require(msg.sender == rents[_rentId].owner, \"The sender is not the rent owner\");\n        _;\n    }\n\n    modifier onlyRenter(uint _rentId) {\n        require(msg.sender == rents[_rentId].renter, \"The sender is not the the renter\");\n        _;\n    }\n\n    modifier validRendId(uint _rentId) {\n        require(_rentId > 0 && _rentId <= rentCount, \"The rent id given does not exist\");\n        _;\n    }\n\n\n    // FUNCTIONS\n\n    function getRent(uint _rentId) public view validRendId(_rentId) returns (Rent memory) {\n        return rents[_rentId];\n    }\n\n    function postRent(\n        string memory _city,\n        string memory _rentAddress,\n        uint _rentValue\n    ) public returns (uint) {\n        rentCount++;\n        rents[rentCount] = Rent(\n            rentCount,\n            msg.sender,\n            address(0x0),\n            _city,\n            _rentAddress,\n            _rentValue\n        );\n        return rentCount;\n    }\n\n    function updateRent(\n        uint _rentId,\n        string memory _city,\n        string memory _rentAddress,\n        uint _rentValue\n    ) public onlyOwner(_rentId) validRendId(_rentId) returns (bool) {\n        require(_rentValue != rents[_rentId].rentValue, \"The new rent value must be different to the previous one\");\n        Rent storage rent = rents[_rentId];\n        rent.city = _city;\n        rent.rentAddress = _rentAddress;\n        rent.rentValue = _rentValue;\n        return true;\n    }\n\n    function takeRent(uint _rentId) public validRendId(_rentId) returns (bool) {\n        require(rents[_rentId].renter == address(0x0), \"The rent has already been taken\");\n        Rent storage rent = rents[_rentId];\n        rent.renter = msg.sender;\n        return true;\n    }\n\n    function leaveRent(uint _rentId) public onlyRenter(_rentId) validRendId(_rentId) returns(bool) {\n        Rent storage rent = rents[_rentId];\n        rent.renter = address(0x0);\n        return true;\n    }\n\n    function payRent(uint _rentId) public payable onlyRenter(_rentId) validRendId(_rentId) returns(bool) {\n        Rent memory _rent = rents[_rentId];\n        uint etherPrice = getThePrice();\n        uint _rentValue = _rent.rentValue.mul(uint(1 ether)).div(etherPrice);\n        require(_rent.rentValue <= msg.value, \"The value must be greater or queals to the rent value\");\n        uint _change = msg.value.sub(_rentValue);\n        payable(_rent.owner).transfer(_rent.rentValue);\n        payable(msg.sender).transfer(_change);\n        return true;\n    }\n\n    function getThePrice() public view returns (uint) {\n        (\n            uint80 roundID, \n            int price,\n            uint startedAt,\n            uint timeStamp,\n            uint80 answeredInRound\n        ) = priceFeed.latestRoundData();\n        return uint(price);\n    }\n}",
  "sourcePath": "/home/jdiegopm/Documentos/BCAC-Project/BCAC-Project-Contracts/contracts/UniversityHousing.sol",
  "compiler": {
    "name": "solc",
    "version": "0.8.4+commit.c7e474f2.Emscripten.clang"
  },
  "schemaVersion": "3.4.0",
  "updatedAt": "2021-05-17T19:56:30.730Z",
  "networkType": "ethereum",
  "devdoc": {
    "kind": "dev",
    "methods": {},
    "version": 1
  },
  "userdoc": {
    "kind": "user",
    "methods": {},
    "version": 1
  }
}