{
  "contractName": "UniversityHousing",
  "abi": [
    {
      "inputs": [],
      "stateMutability": "nonpayable",
      "type": "constructor"
    },
    {
      "inputs": [],
      "name": "rentCount",
      "outputs": [
        {
          "internalType": "uint256",
          "name": "",
          "type": "uint256"
        }
      ],
      "stateMutability": "view",
      "type": "function"
    },
    {
      "inputs": [
        {
          "internalType": "uint256",
          "name": "",
          "type": "uint256"
        }
      ],
      "name": "rents",
      "outputs": [
        {
          "internalType": "uint256",
          "name": "id",
          "type": "uint256"
        },
        {
          "internalType": "address",
          "name": "owner",
          "type": "address"
        },
        {
          "internalType": "address",
          "name": "renter",
          "type": "address"
        },
        {
          "internalType": "uint256",
          "name": "rentValue",
          "type": "uint256"
        }
      ],
      "stateMutability": "view",
      "type": "function"
    },
    {
      "inputs": [
        {
          "internalType": "uint256",
          "name": "_rentId",
          "type": "uint256"
        }
      ],
      "name": "getRent",
      "outputs": [
        {
          "components": [
            {
              "internalType": "uint256",
              "name": "id",
              "type": "uint256"
            },
            {
              "internalType": "address",
              "name": "owner",
              "type": "address"
            },
            {
              "internalType": "address",
              "name": "renter",
              "type": "address"
            },
            {
              "internalType": "uint256",
              "name": "rentValue",
              "type": "uint256"
            }
          ],
          "internalType": "struct UniversityHousing.Rent",
          "name": "",
          "type": "tuple"
        }
      ],
      "stateMutability": "view",
      "type": "function"
    },
    {
      "inputs": [
        {
          "internalType": "uint256",
          "name": "_rentValue",
          "type": "uint256"
        }
      ],
      "name": "postRent",
      "outputs": [
        {
          "internalType": "uint256",
          "name": "",
          "type": "uint256"
        }
      ],
      "stateMutability": "nonpayable",
      "type": "function"
    },
    {
      "inputs": [
        {
          "internalType": "uint256",
          "name": "_rentId",
          "type": "uint256"
        },
        {
          "internalType": "uint256",
          "name": "_rentValue",
          "type": "uint256"
        }
      ],
      "name": "changeRentValue",
      "outputs": [],
      "stateMutability": "nonpayable",
      "type": "function"
    },
    {
      "inputs": [
        {
          "internalType": "uint256",
          "name": "_rentId",
          "type": "uint256"
        }
      ],
      "name": "takeRent",
      "outputs": [],
      "stateMutability": "nonpayable",
      "type": "function"
    },
    {
      "inputs": [
        {
          "internalType": "uint256",
          "name": "_rentId",
          "type": "uint256"
        }
      ],
      "name": "leaveRent",
      "outputs": [],
      "stateMutability": "nonpayable",
      "type": "function"
    },
    {
      "inputs": [
        {
          "internalType": "uint256",
          "name": "_rentId",
          "type": "uint256"
        }
      ],
      "name": "payRent",
      "outputs": [],
      "stateMutability": "payable",
      "type": "function"
    }
  ],
  "bytecode": "0x6080604052600060015534801561001557600080fd5b50739326bfa02add2366b30bacb125260af6410313316000806101000a81548173ffffffffffffffffffffffffffffffffffffffff021916908373ffffffffffffffffffffffffffffffffffffffff160217905550611147806100796000396000f3fe60806040526004361061007b5760003560e01c8063ac0eba1d1161004e578063ac0eba1d14610151578063c432ef8e1461017a578063d9e8843f146101a3578063e7668c79146101bf5761007b565b8063037d9402146100805780637c2654f6146100bd5780637e71e730146100e8578063a05d098c14610111575b600080fd5b34801561008c57600080fd5b506100a760048036038101906100a29190610bf0565b6101fc565b6040516100b49190610e78565b60405180910390f35b3480156100c957600080fd5b506100d261033c565b6040516100df9190610e93565b60405180910390f35b3480156100f457600080fd5b5061010f600480360381019061010a9190610c19565b610342565b005b34801561011d57600080fd5b5061013860048036038101906101339190610bf0565b6104b9565b6040516101489493929190610eae565b60405180910390f35b34801561015d57600080fd5b5061017860048036038101906101739190610bf0565b610529565b005b34801561018657600080fd5b506101a1600480360381019061019c9190610bf0565b610681565b005b6101bd60048036038101906101b89190610bf0565b6107d7565b005b3480156101cb57600080fd5b506101e660048036038101906101e19190610bf0565b610a59565b6040516101f39190610e93565b60405180910390f35b610204610b87565b8160008111801561021757506001548111155b610256576040517f08c379a000000000000000000000000000000000000000000000000000000000815260040161024d90610e58565b60405180910390fd5b60026000848152602001908152602001600020604051806080016040529081600082015481526020016001820160009054906101000a900473ffffffffffffffffffffffffffffffffffffffff1673ffffffffffffffffffffffffffffffffffffffff1673ffffffffffffffffffffffffffffffffffffffff1681526020016002820160009054906101000a900473ffffffffffffffffffffffffffffffffffffffff1673ffffffffffffffffffffffffffffffffffffffff1673ffffffffffffffffffffffffffffffffffffffff168152602001600382015481525050915050919050565b60015481565b816002600082815260200190815260200160002060010160009054906101000a900473ffffffffffffffffffffffffffffffffffffffff1673ffffffffffffffffffffffffffffffffffffffff163373ffffffffffffffffffffffffffffffffffffffff16146103e7576040517f08c379a00000000000000000000000000000000000000000000000000000000081526004016103de90610e38565b60405180910390fd5b826000811180156103fa57506001548111155b610439576040517f08c379a000000000000000000000000000000000000000000000000000000000815260040161043090610e58565b60405180910390fd5b6002600085815260200190815260200160002060030154831415610492576040517f08c379a000000000000000000000000000000000000000000000000000000000815260040161048990610df8565b60405180910390fd5b60006002600086815260200190815260200160002090508381600301819055505050505050565b60026020528060005260406000206000915090508060000154908060010160009054906101000a900473ffffffffffffffffffffffffffffffffffffffff16908060020160009054906101000a900473ffffffffffffffffffffffffffffffffffffffff16908060030154905084565b806002600082815260200190815260200160002060020160009054906101000a900473ffffffffffffffffffffffffffffffffffffffff1673ffffffffffffffffffffffffffffffffffffffff163373ffffffffffffffffffffffffffffffffffffffff16146105ce576040517f08c379a00000000000000000000000000000000000000000000000000000000081526004016105c590610dd8565b60405180910390fd5b816000811180156105e157506001548111155b610620576040517f08c379a000000000000000000000000000000000000000000000000000000000815260040161061790610e58565b60405180910390fd5b600060026000858152602001908152602001600020905060008160020160006101000a81548173ffffffffffffffffffffffffffffffffffffffff021916908373ffffffffffffffffffffffffffffffffffffffff16021790555050505050565b8060008111801561069457506001548111155b6106d3576040517f08c379a00000000000000000000000000000000000000000000000000000000081526004016106ca90610e58565b60405180910390fd5b600073ffffffffffffffffffffffffffffffffffffffff166002600084815260200190815260200160002060020160009054906101000a900473ffffffffffffffffffffffffffffffffffffffff1673ffffffffffffffffffffffffffffffffffffffff1614610778576040517f08c379a000000000000000000000000000000000000000000000000000000000815260040161076f90610db8565b60405180910390fd5b6000600260008481526020019081526020016000209050338160020160006101000a81548173ffffffffffffffffffffffffffffffffffffffff021916908373ffffffffffffffffffffffffffffffffffffffff160217905550505050565b806002600082815260200190815260200160002060020160009054906101000a900473ffffffffffffffffffffffffffffffffffffffff1673ffffffffffffffffffffffffffffffffffffffff163373ffffffffffffffffffffffffffffffffffffffff161461087c576040517f08c379a000000000000000000000000000000000000000000000000000000000815260040161087390610dd8565b60405180910390fd5b8160008111801561088f57506001548111155b6108ce576040517f08c379a00000000000000000000000000000000000000000000000000000000081526004016108c590610e58565b60405180910390fd5b34600260008581526020019081526020016000206003015414610926576040517f08c379a000000000000000000000000000000000000000000000000000000000815260040161091d90610e18565b60405180910390fd5b600060026000858152602001908152602001600020604051806080016040529081600082015481526020016001820160009054906101000a900473ffffffffffffffffffffffffffffffffffffffff1673ffffffffffffffffffffffffffffffffffffffff1673ffffffffffffffffffffffffffffffffffffffff1681526020016002820160009054906101000a900473ffffffffffffffffffffffffffffffffffffffff1673ffffffffffffffffffffffffffffffffffffffff1673ffffffffffffffffffffffffffffffffffffffff1681526020016003820154815250509050806020015173ffffffffffffffffffffffffffffffffffffffff166108fc349081150290604051600060405180830381858888f19350505050158015610a52573d6000803e3d6000fd5b5050505050565b600060016000815480929190610a6e90610f40565b9190505550604051806080016040528060015481526020013373ffffffffffffffffffffffffffffffffffffffff168152602001600073ffffffffffffffffffffffffffffffffffffffff168152602001838152506002600060015481526020019081526020016000206000820151816000015560208201518160010160006101000a81548173ffffffffffffffffffffffffffffffffffffffff021916908373ffffffffffffffffffffffffffffffffffffffff16021790555060408201518160020160006101000a81548173ffffffffffffffffffffffffffffffffffffffff021916908373ffffffffffffffffffffffffffffffffffffffff160217905550606082015181600301559050506001549050919050565b604051806080016040528060008152602001600073ffffffffffffffffffffffffffffffffffffffff168152602001600073ffffffffffffffffffffffffffffffffffffffff168152602001600081525090565b600081359050610bea816110fa565b92915050565b600060208284031215610c0257600080fd5b6000610c1084828501610bdb565b91505092915050565b60008060408385031215610c2c57600080fd5b6000610c3a85828601610bdb565b9250506020610c4b85828601610bdb565b9150509250929050565b610c5e81610f04565b82525050565b610c6d81610f04565b82525050565b6000610c80601f83610ef3565b9150610c8b82610fb8565b602082019050919050565b6000610ca3602083610ef3565b9150610cae82610fe1565b602082019050919050565b6000610cc6603883610ef3565b9150610cd18261100a565b604082019050919050565b6000610ce9602e83610ef3565b9150610cf482611059565b604082019050919050565b6000610d0c602083610ef3565b9150610d17826110a8565b602082019050919050565b6000610d2f602083610ef3565b9150610d3a826110d1565b602082019050919050565b608082016000820151610d5b6000850182610d9a565b506020820151610d6e6020850182610c55565b506040820151610d816040850182610c55565b506060820151610d946060850182610d9a565b50505050565b610da381610f36565b82525050565b610db281610f36565b82525050565b60006020820190508181036000830152610dd181610c73565b9050919050565b60006020820190508181036000830152610df181610c96565b9050919050565b60006020820190508181036000830152610e1181610cb9565b9050919050565b60006020820190508181036000830152610e3181610cdc565b9050919050565b60006020820190508181036000830152610e5181610cff565b9050919050565b60006020820190508181036000830152610e7181610d22565b9050919050565b6000608082019050610e8d6000830184610d45565b92915050565b6000602082019050610ea86000830184610da9565b92915050565b6000608082019050610ec36000830187610da9565b610ed06020830186610c64565b610edd6040830185610c64565b610eea6060830184610da9565b95945050505050565b600082825260208201905092915050565b6000610f0f82610f16565b9050919050565b600073ffffffffffffffffffffffffffffffffffffffff82169050919050565b6000819050919050565b6000610f4b82610f36565b91507fffffffffffffffffffffffffffffffffffffffffffffffffffffffffffffffff821415610f7e57610f7d610f89565b5b600182019050919050565b7f4e487b7100000000000000000000000000000000000000000000000000000000600052601160045260246000fd5b7f5468652072656e742068617320616c7265616479206265656e2074616b656e00600082015250565b7f5468652073656e646572206973206e6f7420746865207468652072656e746572600082015250565b7f546865206e65772072656e742076616c7565206d75737420626520646966666560008201527f72656e7420746f207468652070726576696f7573206f6e650000000000000000602082015250565b7f5468652076616c75652073656e64206d75737420626520657175616c20746f2060008201527f7468652072656e742076616c7565000000000000000000000000000000000000602082015250565b7f5468652073656e646572206973206e6f74207468652072656e74206f776e6572600082015250565b7f5468652072656e7420696420676976656e20646f6573206e6f74206578697374600082015250565b61110381610f36565b811461110e57600080fd5b5056fea2646970667358221220c9e52650cf2bfaa7e76c945eca39c7dc762557aa32a7ac33f27a9fbfccece8b764736f6c63430008040033",
  "immutableReferences": {},
  "source": "// SPDX-License-Identifier: MIT\npragma solidity >=0.7.0 <0.9.0;\n\nimport \"@chainlink/contracts/src/v0.6/interfaces/AggregatorV3Interface.sol\";\n\ncontract UniversityHousing {\n\n    /**\n     * Struct that store a rent information\n     * Id: Unique identificator for the rent\n     * Owner: Address of the person who is the rent's owner\n     * Renter: Address of the person who is \"living\" in the rent\n     * RentValue: rent value in dollars * 100 (rentValue = 100 is equal to 1 dollar)\n     */\n    struct Rent {\n        uint id;\n        address owner;\n        address renter;\n        uint rentValue;\n    }\n\n    AggregatorV3Interface internal priceFeed;\n\n    uint public rentCount = 0;\n    mapping(uint => Rent) public rents;\n    \n\n    // CONSTRUCTOR\n    \n    constructor() {\n        priceFeed = AggregatorV3Interface(0x9326BFA02ADD2366b30bacB125260Af641031331);\n    }\n\n\n    // MODIFIERS\n\n    modifier onlyOwner(uint _rentId) {\n        require(msg.sender == rents[_rentId].owner, \"The sender is not the rent owner\");\n        _;\n    }\n\n    modifier onlyRenter(uint _rentId) {\n        require(msg.sender == rents[_rentId].renter, \"The sender is not the the renter\");\n        _;\n    }\n\n    modifier validRendId(uint _rentId) {\n        require(_rentId > 0 && _rentId <= rentCount, \"The rent id given does not exist\");\n        _;\n    }\n\n\n    // FUNCTIONS\n\n    function getRent(uint _rentId) public view validRendId(_rentId) returns (Rent memory) {\n        return rents[_rentId];\n    }\n\n    function postRent(uint _rentValue) public returns (uint) {\n        rentCount++;\n        rents[rentCount] = Rent(rentCount, msg.sender, address(0x0), _rentValue);\n        return rentCount;\n    }\n\n    function changeRentValue(uint _rentId, uint _rentValue) public onlyOwner(_rentId) validRendId(_rentId) {\n        require(_rentValue != rents[_rentId].rentValue, \"The new rent value must be different to the previous one\");\n        Rent storage rent = rents[_rentId];\n        rent.rentValue = _rentValue;\n    }\n\n    function takeRent(uint _rentId) public validRendId(_rentId) {\n        require(rents[_rentId].renter == address(0x0), \"The rent has already been taken\");\n        Rent storage rent = rents[_rentId];\n        rent.renter = msg.sender;\n    }\n\n    function leaveRent(uint _rentId) public onlyRenter(_rentId) validRendId(_rentId) {\n        Rent storage rent = rents[_rentId];\n        rent.renter = address(0x0);\n    }\n\n    function payRent(uint _rentId) public payable onlyRenter(_rentId) validRendId(_rentId) {\n        require(rents[_rentId].rentValue == msg.value, \"The value send must be equal to the rent value\");\n        Rent memory _rent = rents[_rentId];\n        payable(_rent.owner).transfer(msg.value);\n    }\n\n    function getThePrice() internal view returns (int) {\n        (\n            uint80 roundID, \n            int price,\n            uint startedAt,\n            uint timeStamp,\n            uint80 answeredInRound\n        ) = priceFeed.latestRoundData();\n        return price;\n    }\n}",
  "sourcePath": "/home/jdiegopm/Documentos/BCA-Project/contracts/UniversityHousing.sol",
  "compiler": {
    "name": "solc",
    "version": "0.8.4+commit.c7e474f2.Emscripten.clang"
  },
  "schemaVersion": "3.4.0",
  "updatedAt": "2021-05-08T16:22:32.250Z",
  "devdoc": {
    "kind": "dev",
    "methods": {},
    "version": 1
  },
  "userdoc": {
    "kind": "user",
    "methods": {},
    "version": 1
  }
}