{
  "contractName": "UniversityHousing",
  "abi": [
    {
      "inputs": [],
      "stateMutability": "nonpayable",
      "type": "constructor"
    },
    {
      "inputs": [],
      "name": "rentCount",
      "outputs": [
        {
          "internalType": "uint256",
          "name": "",
          "type": "uint256"
        }
      ],
      "stateMutability": "view",
      "type": "function",
      "constant": true
    },
    {
      "inputs": [
        {
          "internalType": "uint256",
          "name": "",
          "type": "uint256"
        }
      ],
      "name": "rents",
      "outputs": [
        {
          "internalType": "uint256",
          "name": "id",
          "type": "uint256"
        },
        {
          "internalType": "address",
          "name": "owner",
          "type": "address"
        },
        {
          "internalType": "address",
          "name": "renter",
          "type": "address"
        },
        {
          "internalType": "string",
          "name": "city",
          "type": "string"
        },
        {
          "internalType": "string",
          "name": "rentAddress",
          "type": "string"
        },
        {
          "internalType": "uint256",
          "name": "rentValue",
          "type": "uint256"
        }
      ],
      "stateMutability": "view",
      "type": "function",
      "constant": true
    },
    {
      "inputs": [
        {
          "internalType": "uint256",
          "name": "_rentId",
          "type": "uint256"
        }
      ],
      "name": "getRent",
      "outputs": [
        {
          "components": [
            {
              "internalType": "uint256",
              "name": "id",
              "type": "uint256"
            },
            {
              "internalType": "address",
              "name": "owner",
              "type": "address"
            },
            {
              "internalType": "address",
              "name": "renter",
              "type": "address"
            },
            {
              "internalType": "string",
              "name": "city",
              "type": "string"
            },
            {
              "internalType": "string",
              "name": "rentAddress",
              "type": "string"
            },
            {
              "internalType": "uint256",
              "name": "rentValue",
              "type": "uint256"
            }
          ],
          "internalType": "struct UniversityHousing.Rent",
          "name": "",
          "type": "tuple"
        }
      ],
      "stateMutability": "view",
      "type": "function",
      "constant": true
    },
    {
      "inputs": [
        {
          "internalType": "string",
          "name": "_city",
          "type": "string"
        },
        {
          "internalType": "string",
          "name": "_rentAddress",
          "type": "string"
        },
        {
          "internalType": "uint256",
          "name": "_rentValue",
          "type": "uint256"
        }
      ],
      "name": "postRent",
      "outputs": [
        {
          "internalType": "uint256",
          "name": "",
          "type": "uint256"
        }
      ],
      "stateMutability": "nonpayable",
      "type": "function"
    },
    {
      "inputs": [
        {
          "internalType": "uint256",
          "name": "_rentId",
          "type": "uint256"
        },
        {
          "internalType": "string",
          "name": "_city",
          "type": "string"
        },
        {
          "internalType": "string",
          "name": "_rentAddress",
          "type": "string"
        },
        {
          "internalType": "uint256",
          "name": "_rentValue",
          "type": "uint256"
        }
      ],
      "name": "updateRent",
      "outputs": [
        {
          "internalType": "bool",
          "name": "",
          "type": "bool"
        }
      ],
      "stateMutability": "nonpayable",
      "type": "function"
    },
    {
      "inputs": [
        {
          "internalType": "uint256",
          "name": "_rentId",
          "type": "uint256"
        }
      ],
      "name": "takeRent",
      "outputs": [
        {
          "internalType": "bool",
          "name": "",
          "type": "bool"
        }
      ],
      "stateMutability": "nonpayable",
      "type": "function"
    },
    {
      "inputs": [
        {
          "internalType": "uint256",
          "name": "_rentId",
          "type": "uint256"
        }
      ],
      "name": "leaveRent",
      "outputs": [
        {
          "internalType": "bool",
          "name": "",
          "type": "bool"
        }
      ],
      "stateMutability": "nonpayable",
      "type": "function"
    },
    {
      "inputs": [
        {
          "internalType": "uint256",
          "name": "_rentId",
          "type": "uint256"
        }
      ],
      "name": "payRent",
      "outputs": [
        {
          "internalType": "bool",
          "name": "",
          "type": "bool"
        }
      ],
      "stateMutability": "payable",
      "type": "function",
      "payable": true
    },
    {
      "inputs": [],
      "name": "getThePrice",
      "outputs": [
        {
          "internalType": "uint256",
          "name": "",
          "type": "uint256"
        }
      ],
      "stateMutability": "view",
      "type": "function",
      "constant": true
    }
  ],
  "bytecode": "0x6080604052600060015534801561001557600080fd5b50739326bfa02add2366b30bacb125260af6410313316000806101000a81548173ffffffffffffffffffffffffffffffffffffffff021916908373ffffffffffffffffffffffffffffffffffffffff160217905550611dd5806100796000396000f3fe6080604052600436106100865760003560e01c8063ac0eba1d11610059578063ac0eba1d14610160578063c34bcee71461019d578063c432ef8e146101da578063d5bacc3414610217578063d9e8843f1461025457610086565b8063037d94021461008b5780637c2654f6146100c85780638c3c9a55146100f3578063a05d098c1461011e575b600080fd5b34801561009757600080fd5b506100b260048036038101906100ad91906113da565b610284565b6040516100bf9190611807565b60405180910390f35b3480156100d457600080fd5b506100dd6104e8565b6040516100ea9190611829565b60405180910390f35b3480156100ff57600080fd5b506101086104ee565b6040516101159190611829565b60405180910390f35b34801561012a57600080fd5b50610145600480360381019061014091906113da565b6105aa565b60405161015796959493929190611844565b60405180910390f35b34801561016c57600080fd5b50610187600480360381019061018291906113da565b610736565b604051610194919061172c565b60405180910390f35b3480156101a957600080fd5b506101c460048036038101906101bf919061135b565b610896565b6040516101d19190611829565b60405180910390f35b3480156101e657600080fd5b5061020160048036038101906101fc91906113da565b610a0c565b60405161020e919061172c565b60405180910390f35b34801561022357600080fd5b5061023e60048036038101906102399190611403565b610b6a565b60405161024b919061172c565b60405180910390f35b61026e600480360381019061026991906113da565b610d1d565b60405161027b919061172c565b60405180910390f35b61028c61119a565b8160008111801561029f57506001548111155b6102de576040517f08c379a00000000000000000000000000000000000000000000000000000000081526004016102d5906117e7565b60405180910390fd5b600260008481526020019081526020016000206040518060c0016040529081600082015481526020016001820160009054906101000a900473ffffffffffffffffffffffffffffffffffffffff1673ffffffffffffffffffffffffffffffffffffffff1673ffffffffffffffffffffffffffffffffffffffff1681526020016002820160009054906101000a900473ffffffffffffffffffffffffffffffffffffffff1673ffffffffffffffffffffffffffffffffffffffff1673ffffffffffffffffffffffffffffffffffffffff1681526020016003820180546103c290611a9f565b80601f01602080910402602001604051908101604052809291908181526020018280546103ee90611a9f565b801561043b5780601f106104105761010080835404028352916020019161043b565b820191906000526020600020905b81548152906001019060200180831161041e57829003601f168201915b5050505050815260200160048201805461045490611a9f565b80601f016020809104026020016040519081016040528092919081815260200182805461048090611a9f565b80156104cd5780601f106104a2576101008083540402835291602001916104cd565b820191906000526020600020905b8154815290600101906020018083116104b057829003601f168201915b50505050508152602001600582015481525050915050919050565b60015481565b60008060008060008060008054906101000a900473ffffffffffffffffffffffffffffffffffffffff1673ffffffffffffffffffffffffffffffffffffffff1663feaf968c6040518163ffffffff1660e01b815260040160a06040518083038186803b15801561055d57600080fd5b505afa158015610571573d6000803e3d6000fd5b505050506040513d601f19601f820116820180604052508101906105959190611496565b94509450945094509450839550505050505090565b60026020528060005260406000206000915090508060000154908060010160009054906101000a900473ffffffffffffffffffffffffffffffffffffffff16908060020160009054906101000a900473ffffffffffffffffffffffffffffffffffffffff169080600301805461061f90611a9f565b80601f016020809104026020016040519081016040528092919081815260200182805461064b90611a9f565b80156106985780601f1061066d57610100808354040283529160200191610698565b820191906000526020600020905b81548152906001019060200180831161067b57829003601f168201915b5050505050908060040180546106ad90611a9f565b80601f01602080910402602001604051908101604052809291908181526020018280546106d990611a9f565b80156107265780601f106106fb57610100808354040283529160200191610726565b820191906000526020600020905b81548152906001019060200180831161070957829003601f168201915b5050505050908060050154905086565b6000816002600082815260200190815260200160002060020160009054906101000a900473ffffffffffffffffffffffffffffffffffffffff1673ffffffffffffffffffffffffffffffffffffffff163373ffffffffffffffffffffffffffffffffffffffff16146107dd576040517f08c379a00000000000000000000000000000000000000000000000000000000081526004016107d490611787565b60405180910390fd5b826000811180156107f057506001548111155b61082f576040517f08c379a0000000000000000000000000000000000000000000000000000000008152600401610826906117e7565b60405180910390fd5b600060026000868152602001908152602001600020905060008160020160006101000a81548173ffffffffffffffffffffffffffffffffffffffff021916908373ffffffffffffffffffffffffffffffffffffffff16021790555060019350505050919050565b6000600160008154809291906108ab90611b02565b91905055506040518060c0016040528060015481526020013373ffffffffffffffffffffffffffffffffffffffff168152602001600073ffffffffffffffffffffffffffffffffffffffff168152602001858152602001848152602001838152506002600060015481526020019081526020016000206000820151816000015560208201518160010160006101000a81548173ffffffffffffffffffffffffffffffffffffffff021916908373ffffffffffffffffffffffffffffffffffffffff16021790555060408201518160020160006101000a81548173ffffffffffffffffffffffffffffffffffffffff021916908373ffffffffffffffffffffffffffffffffffffffff16021790555060608201518160030190805190602001906109d59291906111fc565b5060808201518160040190805190602001906109f29291906111fc565b5060a0820151816005015590505060015490509392505050565b600081600081118015610a2157506001548111155b610a60576040517f08c379a0000000000000000000000000000000000000000000000000000000008152600401610a57906117e7565b60405180910390fd5b600073ffffffffffffffffffffffffffffffffffffffff166002600085815260200190815260200160002060020160009054906101000a900473ffffffffffffffffffffffffffffffffffffffff1673ffffffffffffffffffffffffffffffffffffffff1614610b05576040517f08c379a0000000000000000000000000000000000000000000000000000000008152600401610afc90611767565b60405180910390fd5b6000600260008581526020019081526020016000209050338160020160006101000a81548173ffffffffffffffffffffffffffffffffffffffff021916908373ffffffffffffffffffffffffffffffffffffffff160217905550600192505050919050565b6000846002600082815260200190815260200160002060010160009054906101000a900473ffffffffffffffffffffffffffffffffffffffff1673ffffffffffffffffffffffffffffffffffffffff163373ffffffffffffffffffffffffffffffffffffffff1614610c11576040517f08c379a0000000000000000000000000000000000000000000000000000000008152600401610c08906117c7565b60405180910390fd5b85600081118015610c2457506001548111155b610c63576040517f08c379a0000000000000000000000000000000000000000000000000000000008152600401610c5a906117e7565b60405180910390fd5b6002600088815260200190815260200160002060050154841415610cbc576040517f08c379a0000000000000000000000000000000000000000000000000000000008152600401610cb3906117a7565b60405180910390fd5b600060026000898152602001908152602001600020905086816003019080519060200190610ceb9291906111fc565b5085816004019080519060200190610d049291906111fc565b5084816005018190555060019350505050949350505050565b6000816002600082815260200190815260200160002060020160009054906101000a900473ffffffffffffffffffffffffffffffffffffffff1673ffffffffffffffffffffffffffffffffffffffff163373ffffffffffffffffffffffffffffffffffffffff1614610dc4576040517f08c379a0000000000000000000000000000000000000000000000000000000008152600401610dbb90611787565b60405180910390fd5b82600081118015610dd757506001548111155b610e16576040517f08c379a0000000000000000000000000000000000000000000000000000000008152600401610e0d906117e7565b60405180910390fd5b6000600260008681526020019081526020016000206040518060c0016040529081600082015481526020016001820160009054906101000a900473ffffffffffffffffffffffffffffffffffffffff1673ffffffffffffffffffffffffffffffffffffffff1673ffffffffffffffffffffffffffffffffffffffff1681526020016002820160009054906101000a900473ffffffffffffffffffffffffffffffffffffffff1673ffffffffffffffffffffffffffffffffffffffff1673ffffffffffffffffffffffffffffffffffffffff168152602001600382018054610efc90611a9f565b80601f0160208091040260200160405190810160405280929190818152602001828054610f2890611a9f565b8015610f755780601f10610f4a57610100808354040283529160200191610f75565b820191906000526020600020905b815481529060010190602001808311610f5857829003601f168201915b50505050508152602001600482018054610f8e90611a9f565b80601f0160208091040260200160405190810160405280929190818152602001828054610fba90611a9f565b80156110075780601f10610fdc57610100808354040283529160200191611007565b820191906000526020600020905b815481529060010190602001808311610fea57829003601f168201915b50505050508152602001600582015481525050905060006110266104ee565b9050600061105b8261104d8560a00151670de0b6b3a764000061115890919063ffffffff16565b61116e90919063ffffffff16565b9050348111156110a0576040517f08c379a000000000000000000000000000000000000000000000000000000000815260040161109790611747565b60405180910390fd5b60006110b5823461118490919063ffffffff16565b9050836020015173ffffffffffffffffffffffffffffffffffffffff166108fc839081150290604051600060405180830381858888f19350505050158015611101573d6000803e3d6000fd5b503373ffffffffffffffffffffffffffffffffffffffff166108fc829081150290604051600060405180830381858888f19350505050158015611148573d6000803e3d6000fd5b5060019650505050505050919050565b600081836111669190611967565b905092915050565b6000818361117c9190611936565b905092915050565b6000818361119291906119c1565b905092915050565b6040518060c0016040528060008152602001600073ffffffffffffffffffffffffffffffffffffffff168152602001600073ffffffffffffffffffffffffffffffffffffffff1681526020016060815260200160608152602001600081525090565b82805461120890611a9f565b90600052602060002090601f01602090048101928261122a5760008555611271565b82601f1061124357805160ff1916838001178555611271565b82800160010185558215611271579182015b82811115611270578251825591602001919060010190611255565b5b50905061127e9190611282565b5090565b5b8082111561129b576000816000905550600101611283565b5090565b60006112b26112ad846118d8565b6118b3565b9050828152602081018484840111156112ca57600080fd5b6112d5848285611a5d565b509392505050565b6000815190506112ec81611d5a565b92915050565b600082601f83011261130357600080fd5b813561131384826020860161129f565b91505092915050565b60008135905061132b81611d71565b92915050565b60008151905061134081611d71565b92915050565b60008151905061135581611d88565b92915050565b60008060006060848603121561137057600080fd5b600084013567ffffffffffffffff81111561138a57600080fd5b611396868287016112f2565b935050602084013567ffffffffffffffff8111156113b357600080fd5b6113bf868287016112f2565b92505060406113d08682870161131c565b9150509250925092565b6000602082840312156113ec57600080fd5b60006113fa8482850161131c565b91505092915050565b6000806000806080858703121561141957600080fd5b60006114278782880161131c565b945050602085013567ffffffffffffffff81111561144457600080fd5b611450878288016112f2565b935050604085013567ffffffffffffffff81111561146d57600080fd5b611479878288016112f2565b925050606061148a8782880161131c565b91505092959194509250565b600080600080600060a086880312156114ae57600080fd5b60006114bc88828901611346565b95505060206114cd888289016112dd565b94505060406114de88828901611331565b93505060606114ef88828901611331565b925050608061150088828901611346565b9150509295509295909350565b611516816119f5565b82525050565b611525816119f5565b82525050565b61153481611a07565b82525050565b600061154582611909565b61154f8185611914565b935061155f818560208601611a6c565b61156881611c07565b840191505092915050565b600061157e82611909565b6115888185611925565b9350611598818560208601611a6c565b6115a181611c07565b840191505092915050565b60006115b9603583611925565b91506115c482611c18565b604082019050919050565b60006115dc601f83611925565b91506115e782611c67565b602082019050919050565b60006115ff602083611925565b915061160a82611c90565b602082019050919050565b6000611622603883611925565b915061162d82611cb9565b604082019050919050565b6000611645602083611925565b915061165082611d08565b602082019050919050565b6000611668602083611925565b915061167382611d31565b602082019050919050565b600060c083016000830151611696600086018261170e565b5060208301516116a9602086018261150d565b5060408301516116bc604086018261150d565b50606083015184820360608601526116d4828261153a565b915050608083015184820360808601526116ee828261153a565b91505060a083015161170360a086018261170e565b508091505092915050565b61171781611a3d565b82525050565b61172681611a3d565b82525050565b6000602082019050611741600083018461152b565b92915050565b60006020820190508181036000830152611760816115ac565b9050919050565b60006020820190508181036000830152611780816115cf565b9050919050565b600060208201905081810360008301526117a0816115f2565b9050919050565b600060208201905081810360008301526117c081611615565b9050919050565b600060208201905081810360008301526117e081611638565b9050919050565b600060208201905081810360008301526118008161165b565b9050919050565b60006020820190508181036000830152611821818461167e565b905092915050565b600060208201905061183e600083018461171d565b92915050565b600060c082019050611859600083018961171d565b611866602083018861151c565b611873604083018761151c565b81810360608301526118858186611573565b905081810360808301526118998185611573565b90506118a860a083018461171d565b979650505050505050565b60006118bd6118ce565b90506118c98282611ad1565b919050565b6000604051905090565b600067ffffffffffffffff8211156118f3576118f2611bd8565b5b6118fc82611c07565b9050602081019050919050565b600081519050919050565b600082825260208201905092915050565b600082825260208201905092915050565b600061194182611a3d565b915061194c83611a3d565b92508261195c5761195b611b7a565b5b828204905092915050565b600061197282611a3d565b915061197d83611a3d565b9250817fffffffffffffffffffffffffffffffffffffffffffffffffffffffffffffffff04831182151516156119b6576119b5611b4b565b5b828202905092915050565b60006119cc82611a3d565b91506119d783611a3d565b9250828210156119ea576119e9611b4b565b5b828203905092915050565b6000611a0082611a1d565b9050919050565b60008115159050919050565b6000819050919050565b600073ffffffffffffffffffffffffffffffffffffffff82169050919050565b6000819050919050565b600069ffffffffffffffffffff82169050919050565b82818337600083830152505050565b60005b83811015611a8a578082015181840152602081019050611a6f565b83811115611a99576000848401525b50505050565b60006002820490506001821680611ab757607f821691505b60208210811415611acb57611aca611ba9565b5b50919050565b611ada82611c07565b810181811067ffffffffffffffff82111715611af957611af8611bd8565b5b80604052505050565b6000611b0d82611a3d565b91507fffffffffffffffffffffffffffffffffffffffffffffffffffffffffffffffff821415611b4057611b3f611b4b565b5b600182019050919050565b7f4e487b7100000000000000000000000000000000000000000000000000000000600052601160045260246000fd5b7f4e487b7100000000000000000000000000000000000000000000000000000000600052601260045260246000fd5b7f4e487b7100000000000000000000000000000000000000000000000000000000600052602260045260246000fd5b7f4e487b7100000000000000000000000000000000000000000000000000000000600052604160045260246000fd5b6000601f19601f8301169050919050565b7f5468652076616c7565206d7573742062652067726561746572206f722071756560008201527f616c7320746f207468652072656e742076616c75650000000000000000000000602082015250565b7f5468652072656e742068617320616c7265616479206265656e2074616b656e00600082015250565b7f5468652073656e646572206973206e6f7420746865207468652072656e746572600082015250565b7f546865206e65772072656e742076616c7565206d75737420626520646966666560008201527f72656e7420746f207468652070726576696f7573206f6e650000000000000000602082015250565b7f5468652073656e646572206973206e6f74207468652072656e74206f776e6572600082015250565b7f5468652072656e7420696420676976656e20646f6573206e6f74206578697374600082015250565b611d6381611a13565b8114611d6e57600080fd5b50565b611d7a81611a3d565b8114611d8557600080fd5b50565b611d9181611a47565b8114611d9c57600080fd5b5056fea2646970667358221220ad9c59e0a8029ff60873af912bb1b8ed9db692952218f2de406981259252af9164736f6c63430008040033",
  "immutableReferences": {},
  "source": "// SPDX-License-Identifier: MIT\npragma solidity >=0.7.0 <0.9.0;\n\nimport \"@chainlink/contracts/src/v0.6/interfaces/AggregatorV3Interface.sol\";\nimport \"@openzeppelin/contracts/utils/math/SafeMath.sol\";\n\ncontract UniversityHousing {\n\n    /**\n     * Struct that store a rent information\n     * Id: Unique identificator for the rent\n     * Owner: Address of the person who is the rent's owner\n     * Renter: Address of the person who is \"living\" in the rent\n     * City: city's name where the rent is lacated\n     * RentAddress: Rent's address in the city\n     * RentValue: rent value in dollars * 100000000 (rentValue = 100000000 is equal to 1 dollar)\n     */\n    struct Rent {\n        uint id;\n        address owner;\n        address renter;\n        string city;\n        string rentAddress;\n        uint rentValue;\n    }\n\n    AggregatorV3Interface internal priceFeed;\n    using SafeMath for uint;\n\n    uint public rentCount = 0;\n    mapping(uint => Rent) public rents;\n    \n\n    // CONSTRUCTOR\n    \n    constructor() {\n        priceFeed = AggregatorV3Interface(0x9326BFA02ADD2366b30bacB125260Af641031331);\n    }\n\n\n    // MODIFIERS\n\n    modifier onlyOwner(uint _rentId) {\n        require(msg.sender == rents[_rentId].owner, \"The sender is not the rent owner\");\n        _;\n    }\n\n    modifier onlyRenter(uint _rentId) {\n        require(msg.sender == rents[_rentId].renter, \"The sender is not the the renter\");\n        _;\n    }\n\n    modifier validRendId(uint _rentId) {\n        require(_rentId > 0 && _rentId <= rentCount, \"The rent id given does not exist\");\n        _;\n    }\n\n\n    // FUNCTIONS\n\n    function getRent(uint _rentId) public view validRendId(_rentId) returns (Rent memory) {\n        return rents[_rentId];\n    }\n\n    function postRent(\n        string memory _city,\n        string memory _rentAddress,\n        uint _rentValue\n    ) public returns (uint) {\n        rentCount++;\n        rents[rentCount] = Rent(\n            rentCount,\n            msg.sender,\n            address(0x0),\n            _city,\n            _rentAddress,\n            _rentValue\n        );\n        return rentCount;\n    }\n\n    function updateRent(\n        uint _rentId,\n        string memory _city,\n        string memory _rentAddress,\n        uint _rentValue\n    ) public onlyOwner(_rentId) validRendId(_rentId) returns (bool) {\n        require(_rentValue != rents[_rentId].rentValue, \"The new rent value must be different to the previous one\");\n        Rent storage rent = rents[_rentId];\n        rent.city = _city;\n        rent.rentAddress = _rentAddress;\n        rent.rentValue = _rentValue;\n        return true;\n    }\n\n    function takeRent(uint _rentId) public validRendId(_rentId) returns (bool) {\n        require(rents[_rentId].renter == address(0x0), \"The rent has already been taken\");\n        Rent storage rent = rents[_rentId];\n        rent.renter = msg.sender;\n        return true;\n    }\n\n    function leaveRent(uint _rentId) public onlyRenter(_rentId) validRendId(_rentId) returns(bool) {\n        Rent storage rent = rents[_rentId];\n        rent.renter = address(0x0);\n        return true;\n    }\n\n    function payRent(uint _rentId) public payable onlyRenter(_rentId) validRendId(_rentId) returns(bool) {\n        Rent memory _rent = rents[_rentId];\n\n        uint256 price = getThePrice();\n        uint256 _rentValue = uint256(1 ether).mul(_rent.rentValue).div(price);\n        require(_rentValue <= msg.value, \"The value must be greater or queals to the rent value\");\n        uint _change = msg.value.sub(_rentValue);\n        payable(_rent.owner).transfer(_rentValue);\n        payable(msg.sender).transfer(_change);\n        return true;\n    }\n\n    function getThePrice() public view returns (uint256) {\n        (\n            uint80 roundID, \n            int price,\n            uint startedAt,\n            uint timeStamp,\n            uint80 answeredInRound\n        ) = priceFeed.latestRoundData();\n        return uint256(price);\n    }\n}",
  "sourcePath": "/home/jdiegopm/Documentos/BCAC-Project/BCAC-Project-Contracts/contracts/UniversityHousing.sol",
  "compiler": {
    "name": "solc",
    "version": "0.8.4+commit.c7e474f2.Emscripten.clang"
  },
  "schemaVersion": "3.4.0",
  "updatedAt": "2021-05-18T16:24:57.164Z",
  "networkType": "ethereum",
  "devdoc": {
    "kind": "dev",
    "methods": {},
    "version": 1
  },
  "userdoc": {
    "kind": "user",
    "methods": {},
    "version": 1
  }
}